{
  "_format": "hh-sol-artifact-1",
  "contractName": "FertiliAudit",
  "sourceName": "contracts/FertiliAudit.sol",
  "abi": [
    {
      "inputs": [],
      "stateMutability": "nonpayable",
      "type": "constructor"
    },
    {
      "anonymous": false,
      "inputs": [
        {
          "indexed": true,
          "internalType": "uint256",
          "name": "tokenId",
          "type": "uint256"
        },
        {
          "indexed": true,
          "internalType": "bytes32",
          "name": "subjectHash",
          "type": "bytes32"
        },
        {
          "indexed": true,
          "internalType": "address",
          "name": "grantee",
          "type": "address"
        },
        {
          "indexed": false,
          "internalType": "uint256",
          "name": "expiry",
          "type": "uint256"
        },
        {
          "indexed": false,
          "internalType": "string",
          "name": "role",
          "type": "string"
        }
      ],
      "name": "AccessTokenIssued",
      "type": "event"
    },
    {
      "anonymous": false,
      "inputs": [
        {
          "indexed": true,
          "internalType": "uint256",
          "name": "tokenId",
          "type": "uint256"
        },
        {
          "indexed": true,
          "internalType": "address",
          "name": "revokedBy",
          "type": "address"
        },
        {
          "indexed": false,
          "internalType": "uint256",
          "name": "timestamp",
          "type": "uint256"
        }
      ],
      "name": "AccessTokenRevoked",
      "type": "event"
    },
    {
      "anonymous": false,
      "inputs": [
        {
          "indexed": true,
          "internalType": "bytes32",
          "name": "dataHash",
          "type": "bytes32"
        },
        {
          "indexed": false,
          "internalType": "string",
          "name": "action",
          "type": "string"
        },
        {
          "indexed": true,
          "internalType": "address",
          "name": "actor",
          "type": "address"
        },
        {
          "indexed": false,
          "internalType": "uint256",
          "name": "timestamp",
          "type": "uint256"
        }
      ],
      "name": "AuditLogged",
      "type": "event"
    },
    {
      "anonymous": false,
      "inputs": [
        {
          "indexed": true,
          "internalType": "bytes32",
          "name": "patientHash",
          "type": "bytes32"
        },
        {
          "indexed": false,
          "internalType": "string",
          "name": "cid",
          "type": "string"
        },
        {
          "indexed": true,
          "internalType": "address",
          "name": "issuer",
          "type": "address"
        },
        {
          "indexed": false,
          "internalType": "uint256",
          "name": "timestamp",
          "type": "uint256"
        }
      ],
      "name": "ConsentRecorded",
      "type": "event"
    },
    {
      "inputs": [
        {
          "internalType": "address",
          "name": "",
          "type": "address"
        }
      ],
      "name": "authorized",
      "outputs": [
        {
          "internalType": "bool",
          "name": "",
          "type": "bool"
        }
      ],
      "stateMutability": "view",
      "type": "function"
    },
    {
      "inputs": [
        {
          "internalType": "uint256",
          "name": "idx",
          "type": "uint256"
        }
      ],
      "name": "getAudit",
      "outputs": [
        {
          "internalType": "bytes32",
          "name": "",
          "type": "bytes32"
        },
        {
          "internalType": "string",
          "name": "",
          "type": "string"
        },
        {
          "internalType": "address",
          "name": "",
          "type": "address"
        },
        {
          "internalType": "uint256",
          "name": "",
          "type": "uint256"
        }
      ],
      "stateMutability": "view",
      "type": "function"
    },
    {
      "inputs": [],
      "name": "getAuditCount",
      "outputs": [
        {
          "internalType": "uint256",
          "name": "",
          "type": "uint256"
        }
      ],
      "stateMutability": "view",
      "type": "function"
    },
    {
      "inputs": [
        {
          "internalType": "bytes32",
          "name": "patientHash",
          "type": "bytes32"
        }
      ],
      "name": "getConsents",
      "outputs": [
        {
          "internalType": "string[]",
          "name": "",
          "type": "string[]"
        }
      ],
      "stateMutability": "view",
      "type": "function"
    },
    {
      "inputs": [
        {
          "internalType": "uint256",
          "name": "tokenId",
          "type": "uint256"
        }
      ],
      "name": "getToken",
      "outputs": [
        {
          "components": [
            {
              "internalType": "uint256",
              "name": "id",
              "type": "uint256"
            },
            {
              "internalType": "bytes32",
              "name": "subjectHash",
              "type": "bytes32"
            },
            {
              "internalType": "address",
              "name": "grantee",
              "type": "address"
            },
            {
              "internalType": "uint256",
              "name": "expiry",
              "type": "uint256"
            },
            {
              "internalType": "string",
              "name": "role",
              "type": "string"
            },
            {
              "internalType": "bool",
              "name": "active",
              "type": "bool"
            }
          ],
          "internalType": "struct FertiliAudit.AccessToken",
          "name": "",
          "type": "tuple"
        }
      ],
      "stateMutability": "view",
      "type": "function"
    },
    {
      "inputs": [
        {
          "internalType": "uint256",
          "name": "tokenId",
          "type": "uint256"
        }
      ],
      "name": "isTokenValid",
      "outputs": [
        {
          "internalType": "bool",
          "name": "",
          "type": "bool"
        }
      ],
      "stateMutability": "view",
      "type": "function"
    },
    {
      "inputs": [
        {
          "internalType": "bytes32",
          "name": "subjectHash",
          "type": "bytes32"
        },
        {
          "internalType": "address",
          "name": "grantee",
          "type": "address"
        },
        {
          "internalType": "uint256",
          "name": "expiry",
          "type": "uint256"
        },
        {
          "internalType": "string",
          "name": "role",
          "type": "string"
        }
      ],
      "name": "issueAccessToken",
      "outputs": [
        {
          "internalType": "uint256",
          "name": "",
          "type": "uint256"
        }
      ],
      "stateMutability": "nonpayable",
      "type": "function"
    },
    {
      "inputs": [],
      "name": "owner",
      "outputs": [
        {
          "internalType": "address",
          "name": "",
          "type": "address"
        }
      ],
      "stateMutability": "view",
      "type": "function"
    },
    {
      "inputs": [
        {
          "internalType": "bytes32",
          "name": "dataHash",
          "type": "bytes32"
        },
        {
          "internalType": "string",
          "name": "action",
          "type": "string"
        }
      ],
      "name": "recordAudit",
      "outputs": [],
      "stateMutability": "nonpayable",
      "type": "function"
    },
    {
      "inputs": [
        {
          "internalType": "bytes32",
          "name": "patientHash",
          "type": "bytes32"
        },
        {
          "internalType": "string",
          "name": "cid",
          "type": "string"
        }
      ],
      "name": "recordConsent",
      "outputs": [],
      "stateMutability": "nonpayable",
      "type": "function"
    },
    {
      "inputs": [
        {
          "internalType": "uint256",
          "name": "tokenId",
          "type": "uint256"
        }
      ],
      "name": "revokeAccessToken",
      "outputs": [],
      "stateMutability": "nonpayable",
      "type": "function"
    },
    {
      "inputs": [
        {
          "internalType": "address",
          "name": "account",
          "type": "address"
        },
        {
          "internalType": "bool",
          "name": "allow",
          "type": "bool"
        }
      ],
      "name": "setAuthorized",
      "outputs": [],
      "stateMutability": "nonpayable",
      "type": "function"
    }
  ],
  "bytecode": "0x6080604052600160045534801561001557600080fd5b50336000806101000a81548173ffffffffffffffffffffffffffffffffffffffff021916908373ffffffffffffffffffffffffffffffffffffffff16021790555060018060003373ffffffffffffffffffffffffffffffffffffffff1673ffffffffffffffffffffffffffffffffffffffff16815260200190815260200160002060006101000a81548160ff021916908315150217905550611f66806100bc6000396000f3fe608060405234801561001057600080fd5b50600436106100b45760003560e01c8063a719ad3711610071578063a719ad371461017c578063ac31383014610198578063b83fa9f6146101c8578063b9181611146101f8578063c92243d814610228578063e4b50cb814610258576100b4565b80630c64f615146100b957806317bf37a3146100d55780636353bde614610108578063711bf9b2146101265780638da5cb5b146101425780638ef1a82714610160575b600080fd5b6100d360048036038101906100ce9190611181565b610288565b005b6100ef60048036038101906100ea9190611217565b6104db565b6040516100ff9493929190611333565b60405180910390f35b61011061061e565b60405161011d919061137f565b60405180910390f35b610140600480360381019061013b91906113fe565b61062b565b005b61014a610714565b604051610157919061143e565b60405180910390f35b61017a60048036038101906101759190611217565b610738565b005b61019660048036038101906101919190611181565b610903565b005b6101b260048036038101906101ad9190611459565b610a8c565b6040516101bf919061137f565b60405180910390f35b6101e260048036038101906101dd91906114e1565b610dd8565b6040516101ef919061161a565b60405180910390f35b610212600480360381019061020d919061163c565b610ec4565b60405161021f9190611678565b60405180910390f35b610242600480360381019061023d9190611217565b610ee4565b60405161024f9190611678565b60405180910390f35b610272600480360381019061026d9190611217565b610f3d565b60405161027f9190611758565b60405180910390f35b600160003373ffffffffffffffffffffffffffffffffffffffff1673ffffffffffffffffffffffffffffffffffffffff16815260200190815260200160002060009054906101000a900460ff168061032b575060008054906101000a900473ffffffffffffffffffffffffffffffffffffffff1673ffffffffffffffffffffffffffffffffffffffff163373ffffffffffffffffffffffffffffffffffffffff16145b61036a576040517f08c379a0000000000000000000000000000000000000000000000000000000008152600401610361906117c6565b60405180910390fd5b6003604051806080016040528085815260200184848080601f016020809104026020016040519081016040528093929190818152602001838380828437600081840152601f19601f8201169050808301925050505050505081526020013373ffffffffffffffffffffffffffffffffffffffff16815260200142815250908060018154018082558091505060019003906000526020600020906004020160009091909190915060008201518160000155602082015181600101908161042f9190611a21565b5060408201518160020160006101000a81548173ffffffffffffffffffffffffffffffffffffffff021916908373ffffffffffffffffffffffffffffffffffffffff1602179055506060820151816003015550503373ffffffffffffffffffffffffffffffffffffffff16837fff6493bdc3a5c2a45b72997bfa11e688ff4050e350375c13d926402beb4504928484426040516104ce93929190611b2f565b60405180910390a3505050565b600060606000806003805490508510610529576040517f08c379a000000000000000000000000000000000000000000000000000000000815260040161052090611bad565b60405180910390fd5b60006003868154811061053f5761053e611bcd565b5b906000526020600020906004020190508060000154816001018260020160009054906101000a900473ffffffffffffffffffffffffffffffffffffffff16836003015482805461058e90611844565b80601f01602080910402602001604051908101604052809291908181526020018280546105ba90611844565b80156106075780601f106105dc57610100808354040283529160200191610607565b820191906000526020600020905b8154815290600101906020018083116105ea57829003601f168201915b505050505092509450945094509450509193509193565b6000600380549050905090565b60008054906101000a900473ffffffffffffffffffffffffffffffffffffffff1673ffffffffffffffffffffffffffffffffffffffff163373ffffffffffffffffffffffffffffffffffffffff16146106b9576040517f08c379a00000000000000000000000000000000000000000000000000000000081526004016106b090611c48565b60405180910390fd5b80600160008473ffffffffffffffffffffffffffffffffffffffff1673ffffffffffffffffffffffffffffffffffffffff16815260200190815260200160002060006101000a81548160ff0219169083151502179055505050565b60008054906101000a900473ffffffffffffffffffffffffffffffffffffffff1681565b600160003373ffffffffffffffffffffffffffffffffffffffff1673ffffffffffffffffffffffffffffffffffffffff16815260200190815260200160002060009054906101000a900460ff16806107db575060008054906101000a900473ffffffffffffffffffffffffffffffffffffffff1673ffffffffffffffffffffffffffffffffffffffff163373ffffffffffffffffffffffffffffffffffffffff16145b61081a576040517f08c379a0000000000000000000000000000000000000000000000000000000008152600401610811906117c6565b60405180910390fd5b6000600560008381526020019081526020016000209050600081600001541415801561085457508060050160009054906101000a900460ff165b610893576040517f08c379a000000000000000000000000000000000000000000000000000000000815260040161088a90611cb4565b60405180910390fd5b60008160050160006101000a81548160ff0219169083151502179055503373ffffffffffffffffffffffffffffffffffffffff16827f2ef1374be5d787a3f7d49ade1bf2a1355e8bbf69fa3746f7df8d8a5a25bbecf3426040516108f7919061137f565b60405180910390a35050565b600160003373ffffffffffffffffffffffffffffffffffffffff1673ffffffffffffffffffffffffffffffffffffffff16815260200190815260200160002060009054906101000a900460ff16806109a6575060008054906101000a900473ffffffffffffffffffffffffffffffffffffffff1673ffffffffffffffffffffffffffffffffffffffff163373ffffffffffffffffffffffffffffffffffffffff16145b6109e5576040517f08c379a00000000000000000000000000000000000000000000000000000000081526004016109dc906117c6565b60405180910390fd5b60026000848152602001908152602001600020828290918060018154018082558091505060019003906000526020600020016000909192909192909192909192509182610a33929190611cdf565b503373ffffffffffffffffffffffffffffffffffffffff16837ff66b53cdd32ba80e8c0fe38b9e1350ccd47e76ca904dc4007aa47ef4caf60fa7848442604051610a7f93929190611b2f565b60405180910390a3505050565b6000600160003373ffffffffffffffffffffffffffffffffffffffff1673ffffffffffffffffffffffffffffffffffffffff16815260200190815260200160002060009054906101000a900460ff1680610b31575060008054906101000a900473ffffffffffffffffffffffffffffffffffffffff1673ffffffffffffffffffffffffffffffffffffffff163373ffffffffffffffffffffffffffffffffffffffff16145b610b70576040517f08c379a0000000000000000000000000000000000000000000000000000000008152600401610b67906117c6565b60405180910390fd5b600073ffffffffffffffffffffffffffffffffffffffff168573ffffffffffffffffffffffffffffffffffffffff1603610bdf576040517f08c379a0000000000000000000000000000000000000000000000000000000008152600401610bd690611dfb565b60405180910390fd5b428411610c21576040517f08c379a0000000000000000000000000000000000000000000000000000000008152600401610c1890611e67565b60405180910390fd5b600060046000815480929190610c3690611eb6565b9190505590506040518060c001604052808281526020018881526020018773ffffffffffffffffffffffffffffffffffffffff16815260200186815260200185858080601f016020809104026020016040519081016040528093929190818152602001838380828437600081840152601f19601f8201169050808301925050505050505081526020016001151581525060056000838152602001908152602001600020600082015181600001556020820151816001015560408201518160020160006101000a81548173ffffffffffffffffffffffffffffffffffffffff021916908373ffffffffffffffffffffffffffffffffffffffff160217905550606082015181600301556080820151816004019081610d539190611a21565b5060a08201518160050160006101000a81548160ff0219169083151502179055509050508573ffffffffffffffffffffffffffffffffffffffff1687827f96f157680d56662454f0d6fd7b121a36f9f6f318c9103cf5a7fb95f837726d1b888888604051610dc393929190611efe565b60405180910390a48091505095945050505050565b606060026000838152602001908152602001600020805480602002602001604051908101604052809291908181526020016000905b82821015610eb9578382906000526020600020018054610e2c90611844565b80601f0160208091040260200160405190810160405280929190818152602001828054610e5890611844565b8015610ea55780601f10610e7a57610100808354040283529160200191610ea5565b820191906000526020600020905b815481529060010190602001808311610e8857829003601f168201915b505050505081526020019060010190610e0d565b505050509050919050565b60016020528060005260406000206000915054906101000a900460ff1681565b6000806005600084815260200190815260200160002090506000816000015403610f12576000915050610f38565b8060050160009054906101000a900460ff168015610f34575080600301544211155b9150505b919050565b610f4561108b565b600560008381526020019081526020016000206040518060c001604052908160008201548152602001600182015481526020016002820160009054906101000a900473ffffffffffffffffffffffffffffffffffffffff1673ffffffffffffffffffffffffffffffffffffffff1673ffffffffffffffffffffffffffffffffffffffff16815260200160038201548152602001600482018054610fe790611844565b80601f016020809104026020016040519081016040528092919081815260200182805461101390611844565b80156110605780601f1061103557610100808354040283529160200191611060565b820191906000526020600020905b81548152906001019060200180831161104357829003601f168201915b505050505081526020016005820160009054906101000a900460ff1615151515815250509050919050565b6040518060c001604052806000815260200160008019168152602001600073ffffffffffffffffffffffffffffffffffffffff16815260200160008152602001606081526020016000151581525090565b600080fd5b600080fd5b6000819050919050565b6110f9816110e6565b811461110457600080fd5b50565b600081359050611116816110f0565b92915050565b600080fd5b600080fd5b600080fd5b60008083601f8401126111415761114061111c565b5b8235905067ffffffffffffffff81111561115e5761115d611121565b5b60208301915083600182028301111561117a57611179611126565b5b9250929050565b60008060006040848603121561119a576111996110dc565b5b60006111a886828701611107565b935050602084013567ffffffffffffffff8111156111c9576111c86110e1565b5b6111d58682870161112b565b92509250509250925092565b6000819050919050565b6111f4816111e1565b81146111ff57600080fd5b50565b600081359050611211816111eb565b92915050565b60006020828403121561122d5761122c6110dc565b5b600061123b84828501611202565b91505092915050565b61124d816110e6565b82525050565b600081519050919050565b600082825260208201905092915050565b60005b8381101561128d578082015181840152602081019050611272565b60008484015250505050565b6000601f19601f8301169050919050565b60006112b582611253565b6112bf818561125e565b93506112cf81856020860161126f565b6112d881611299565b840191505092915050565b600073ffffffffffffffffffffffffffffffffffffffff82169050919050565b600061130e826112e3565b9050919050565b61131e81611303565b82525050565b61132d816111e1565b82525050565b60006080820190506113486000830187611244565b818103602083015261135a81866112aa565b90506113696040830185611315565b6113766060830184611324565b95945050505050565b60006020820190506113946000830184611324565b92915050565b6113a381611303565b81146113ae57600080fd5b50565b6000813590506113c08161139a565b92915050565b60008115159050919050565b6113db816113c6565b81146113e657600080fd5b50565b6000813590506113f8816113d2565b92915050565b60008060408385031215611415576114146110dc565b5b6000611423858286016113b1565b9250506020611434858286016113e9565b9150509250929050565b60006020820190506114536000830184611315565b92915050565b600080600080600060808688031215611475576114746110dc565b5b600061148388828901611107565b9550506020611494888289016113b1565b94505060406114a588828901611202565b935050606086013567ffffffffffffffff8111156114c6576114c56110e1565b5b6114d28882890161112b565b92509250509295509295909350565b6000602082840312156114f7576114f66110dc565b5b600061150584828501611107565b91505092915050565b600081519050919050565b600082825260208201905092915050565b6000819050602082019050919050565b600082825260208201905092915050565b600061155682611253565b611560818561153a565b935061157081856020860161126f565b61157981611299565b840191505092915050565b6000611590838361154b565b905092915050565b6000602082019050919050565b60006115b08261150e565b6115ba8185611519565b9350836020820285016115cc8561152a565b8060005b8581101561160857848403895281516115e98582611584565b94506115f483611598565b925060208a019950506001810190506115d0565b50829750879550505050505092915050565b6000602082019050818103600083015261163481846115a5565b905092915050565b600060208284031215611652576116516110dc565b5b6000611660848285016113b1565b91505092915050565b611672816113c6565b82525050565b600060208201905061168d6000830184611669565b92915050565b61169c816111e1565b82525050565b6116ab816110e6565b82525050565b6116ba81611303565b82525050565b6116c9816113c6565b82525050565b600060c0830160008301516116e76000860182611693565b5060208301516116fa60208601826116a2565b50604083015161170d60408601826116b1565b5060608301516117206060860182611693565b5060808301518482036080860152611738828261154b565b91505060a083015161174d60a08601826116c0565b508091505092915050565b6000602082019050818103600083015261177281846116cf565b905092915050565b7f4e6f7420617574686f72697a6564000000000000000000000000000000000000600082015250565b60006117b0600e8361125e565b91506117bb8261177a565b602082019050919050565b600060208201905081810360008301526117df816117a3565b9050919050565b7f4e487b7100000000000000000000000000000000000000000000000000000000600052604160045260246000fd5b7f4e487b7100000000000000000000000000000000000000000000000000000000600052602260045260246000fd5b6000600282049050600182168061185c57607f821691505b60208210810361186f5761186e611815565b5b50919050565b60008190508160005260206000209050919050565b60006020601f8301049050919050565b600082821b905092915050565b6000600883026118d77fffffffffffffffffffffffffffffffffffffffffffffffffffffffffffffffff8261189a565b6118e1868361189a565b95508019841693508086168417925050509392505050565b6000819050919050565b600061191e611919611914846111e1565b6118f9565b6111e1565b9050919050565b6000819050919050565b61193883611903565b61194c61194482611925565b8484546118a7565b825550505050565b600090565b611961611954565b61196c81848461192f565b505050565b5b8181101561199057611985600082611959565b600181019050611972565b5050565b601f8211156119d5576119a681611875565b6119af8461188a565b810160208510156119be578190505b6119d26119ca8561188a565b830182611971565b50505b505050565b600082821c905092915050565b60006119f8600019846008026119da565b1980831691505092915050565b6000611a1183836119e7565b9150826002028217905092915050565b611a2a82611253565b67ffffffffffffffff811115611a4357611a426117e6565b5b611a4d8254611844565b611a58828285611994565b600060209050601f831160018114611a8b5760008415611a79578287015190505b611a838582611a05565b865550611aeb565b601f198416611a9986611875565b60005b82811015611ac157848901518255600182019150602085019450602081019050611a9c565b86831015611ade5784890151611ada601f8916826119e7565b8355505b6001600288020188555050505b505050505050565b82818337600083830152505050565b6000611b0e838561125e565b9350611b1b838584611af3565b611b2483611299565b840190509392505050565b60006040820190508181036000830152611b4a818587611b02565b9050611b596020830184611324565b949350505050565b7f696e646578206f7574206f662072616e67650000000000000000000000000000600082015250565b6000611b9760128361125e565b9150611ba282611b61565b602082019050919050565b60006020820190508181036000830152611bc681611b8a565b9050919050565b7f4e487b7100000000000000000000000000000000000000000000000000000000600052603260045260246000fd5b7f4e6f74206f776e65720000000000000000000000000000000000000000000000600082015250565b6000611c3260098361125e565b9150611c3d82611bfc565b602082019050919050565b60006020820190508181036000830152611c6181611c25565b9050919050565b7f746f6b656e206e6f742061637469766500000000000000000000000000000000600082015250565b6000611c9e60108361125e565b9150611ca982611c68565b602082019050919050565b60006020820190508181036000830152611ccd81611c91565b9050919050565b600082905092915050565b611ce98383611cd4565b67ffffffffffffffff811115611d0257611d016117e6565b5b611d0c8254611844565b611d17828285611994565b6000601f831160018114611d465760008415611d34578287013590505b611d3e8582611a05565b865550611da6565b601f198416611d5486611875565b60005b82811015611d7c57848901358255600182019150602085019450602081019050611d57565b86831015611d995784890135611d95601f8916826119e7565b8355505b6001600288020188555050505b50505050505050565b7f696e76616c6964206772616e7465650000000000000000000000000000000000600082015250565b6000611de5600f8361125e565b9150611df082611daf565b602082019050919050565b60006020820190508181036000830152611e1481611dd8565b9050919050565b7f657870697279206d757374206265206675747572650000000000000000000000600082015250565b6000611e5160158361125e565b9150611e5c82611e1b565b602082019050919050565b60006020820190508181036000830152611e8081611e44565b9050919050565b7f4e487b7100000000000000000000000000000000000000000000000000000000600052601160045260246000fd5b6000611ec1826111e1565b91507fffffffffffffffffffffffffffffffffffffffffffffffffffffffffffffffff8203611ef357611ef2611e87565b5b600182019050919050565b6000604082019050611f136000830186611324565b8181036020830152611f26818486611b02565b905094935050505056fea26469706673582212208beaad945cb86d6e7682138c0a492ca702dbe5a9b50bd043bf0236dbbb2656db64736f6c63430008180033",
  "linkReferences": {},
  "deployedLinkReferences": {}
}